:020000040800F2
:10000000000002201D020008190200081902000861
:100010001902000819020008190200080000000077
:1000200000000000000000000000000019020008AD
:100030001902000800000000190200081902000857
:10004000830730B547D0541E002A3ED0CAB20346BB
:1000500001E0013C39D303F8012B9D07F9D1032CB2
:100060002CD9CDB205EB05250F2C05EB054535D96F
:10007000A4F1100222F00F0C03F1100EE6444FEA37
:10008000121C1A46C2E90055C2E9025510327245E7
:10009000F8D10CF1010214F00C0F03EB021204F082
:1000A0000F0C13D0ACF1040323F003030433134407
:1000B00042F8045B9342FBD10CF003042CB1C9B2AB
:1000C0001C4403F8011BA342FBD130BD6446134618
:1000D000002CF4D1F9E703461446C0E71A46A446BB
:1000E000E0E700BF844641EA000313F003036DD14B
:1000F000403A41D351F8043B40F8043B51F8043BEB
:1001000040F8043B51F8043B40F8043B51F8043BF1
:1001100040F8043B51F8043B40F8043B51F8043BE1
:1001200040F8043B51F8043B40F8043B51F8043BD1
:1001300040F8043B51F8043B40F8043B51F8043BC1
:1001400040F8043B51F8043B40F8043B51F8043BB1
:1001500040F8043B51F8043B40F8043B51F8043BA1
:1001600040F8043B51F8043B40F8043B51F8043B91
:1001700040F8043B403ABDD2303211D351F8043B31
:1001800040F8043B51F8043B40F8043B51F8043B71
:1001900040F8043B51F8043B40F8043B103AEDD2E0
:1001A0000C3205D351F8043B40F8043B043AF9D231
:1001B000043208D0D2071CBF11F8013B00F8013B04
:1001C00001D30B8803806046704700BF082A13D311
:1001D0008B078DD010F003038AD0C3F10403D21A29
:1001E000DB071CBF11F8013B00F8013B80D331F85D
:1001F000023B20F8023B7BE7043AD9D3013A11F8DD
:10020000013B00F8013BF9D20B7803704B78437047
:100210008B78837060467047FEE700BF1248134A30
:10022000904238B507D2013A121A22F0030210495F
:100230000432FFF757FF0F480F4A904207D2013AA6
:10024000121A22F0030204320021FFF7F9FE0B4CD0
:100250000B4DAC4204D254F8043B9847AC42FAD35D
:1002600000F0BAF8FEE700BF000000200000002008
:10027000C80400080000002000000020C804000896
:10028000C804000882B008285FD8DFE800F0141F17
:1002900028313A434C5505002E4B1A6B42F48072BC
:1002A0001A631B6B0193019B800200F1804000F5F3
:1002B000003002B07047274B1A6B42F001021A63FC
:1002C0001B6B0193019B244802B07047214B1A6BB2
:1002D00042F002021A631B6B0193019BE4E71D4B82
:1002E0001A6B42F004021A631B6B0193019BDBE75C
:1002F000184B1A6B42F008021A631B6B0193019BA7
:10030000D2E7144B1A6B42F010021A631B6B019375
:10031000019BC9E70F4B1A6B42F020021A631B6B5B
:100320000193019BC0E70B4B1A6B42F040021A632A
:100330001B6B0193019BB7E7064B1A6B42F08002DF
:100340001A631B6B0193019BAEE7024B1B6B01937E
:10035000019BB8E70038024000000240006870B519
:100360008E464FEA4E0501689DF810404FF0030C91
:100370000CFA05FCAA4021EA0C0111430160416816
:1003800003FA05F601229DF8143002FA0EF203FA80
:100390000EF321EA020119434160836823EA0C034A
:1003A00033438360C368AC4023EA0C032343C36038
:1003B00070BD00BF02B91031026801238B40936108
:1003C000704700BF02685369CB40DB0748BF10315C
:1003D00001238B4093617047F0B5032089B0FFF78C
:1003E00051FF354B1B68CDE9030304AD05AC002676
:1003F00015F8017B00230122394603A8CDE90066E8
:10040000FFF7ACFF0022394603A8FFF7D3FFA54250
:10041000EED1002504AE16F8017B0122394603A86F
:10042000FFF7C8FF96220595059BB3F5C86F06D266
:10043000059B01330593059BB3F5C86FF8D3013ACB
:10044000F1D1394603A8FFF7B5FFB442E3D1022644
:1004500004AF17F8011B012203A8FFF7ABFFA74267
:10046000F7D1FA220695069BB3F5C86F06D2069B14
:1004700001330693069BB3F5C86FF8D3013AF1D167
:1004800004AF17F8011B03A8FFF79CFFA742F8D1A0
:10049000FA220795079BB3F5C86F06D2079B013375
:1004A0000793079BB3F5C86FF8D3013AF1D1012E3A
:1004B000B0D00126CCE700BFBC0400080C0D0E0F25
:0804C00024FCFF7F0100000095
:040000050800021DD0
:00000001FF
