:020000040800F2
:10000000000002202510000821100008211000081F
:100010002110000821100008211000080000000035
:100020000000000000000000000000002110000897
:10003000211000080000000021100008B50F000882
:1000400021100008211000082110000821100008CC
:1000500021100008211000082110000821100008BC
:1000600021100008211000082110000821100008AC
:10007000211000082110000821100008211000089C
:10008000211000082110000821100008211000088C
:10009000211000082110000821100008211000087C
:1000A000211000082110000821100008211000086C
:1000B000211000082110000821100008211000085C
:1000C000211000082110000821100008211000084C
:0C00D0002110000821100008DD0F0008BE
:1000DC00830730B547D0541E002A3ED0CAB203461F
:1000EC0001E0013C39D303F8012B9D07F9D1032C16
:1000FC002CD9CDB205EB05250F2C05EB054535D9D3
:10010C00A4F1100222F00F0C03F1100EE6444FEA9A
:10011C00121C1A46C2E90055C2E90255103272454A
:10012C00F8D10CF1010214F00C0F03EB021204F0E5
:10013C000F0C13D0ACF1040323F00303043313446A
:10014C0042F8045B9342FBD10CF003042CB1C9B20E
:10015C001C4403F8011BA342FBD130BD644613467B
:10016C00002CF4D1F9E703461446C0E71A46A4461E
:10017C00E0E700BF844641EA000313F003036DD1AE
:10018C00403A41D351F8043B40F8043B51F8043B4E
:10019C0040F8043B51F8043B40F8043B51F8043B55
:1001AC0040F8043B51F8043B40F8043B51F8043B45
:1001BC0040F8043B51F8043B40F8043B51F8043B35
:1001CC0040F8043B51F8043B40F8043B51F8043B25
:1001DC0040F8043B51F8043B40F8043B51F8043B15
:1001EC0040F8043B51F8043B40F8043B51F8043B05
:1001FC0040F8043B51F8043B40F8043B51F8043BF5
:10020C0040F8043B403ABDD2303211D351F8043B94
:10021C0040F8043B51F8043B40F8043B51F8043BD4
:10022C0040F8043B51F8043B40F8043B103AEDD243
:10023C000C3205D351F8043B40F8043B043AF9D294
:10024C00043208D0D2071CBF11F8013B00F8013B67
:10025C0001D30B8803806046704700BF082A13D374
:10026C008B078DD010F003038AD0C3F10403D21A8C
:10027C00DB071CBF11F8013B00F8013B80D331F8C0
:10028C00023B20F8023B7BE7043AD9D3013A11F840
:10029C00013B00F8013BF9D20B7803704B784370AB
:1002AC008B78837060467047024B0146186800F0EB
:1002BC002FB800BF00000020024B0146186800F068
:1002CC00A7B800BF0000002070B5104E336805467B
:1002DC000C46B3B12146284600F0FCF8431C0CD068
:1002EC00C41C24F00304A04205D0211A284600F0B7
:1002FC00F1F8013001D0204670BD4FF0FF3420469C
:10030C0070BD194600F0E6F83060E3E750000020BD
:10031C002DE9F843CD1C25F0030508350C2D38BF0D
:10032C000C25002D064618DBA94216D8DFF8DC8018
:10033C0000F0CCF8D8F80420A2B1144603E06368AE
:10034C0022467BB11C4623685B1BF8D40B2B1FD8B1
:10035C009442636854D053600CE00C23336000204B
:10036C00BDE8F88329463046FFF7AEFF431C044630
:10037C0019D00560304600F0ABF804F10B00231DDA
:10038C0020F00700C21A1CBF1B1AA350BDE8F8834B
:10039C0061199442256014BF5160C8F80410635170
:1003AC0063684B60E6E7D8F804701FB33C467F687F
:1003BC00002FFBD123683946304604EB030900F0CB
:1003CC0089F8814516D12368ED1A29463046FFF786
:1003DC007BFF01300ED02368D8F804202B44236017
:1003EC00536883B1A34203D01A465B689C42FBD18D
:1003FC000023B0E70C233360304600F069F8AEE719
:10040C00C8F80430B6E7C8F80470B3E75000002011
:10041C00002950D038B551F8043C0C1F002BB8BF44
:10042C00E418054600F052F8274A13682BB1A34292
:10043C000CD92168601883422CD063602846146064
:10044C00BDE8384000F044B8A3420FD81A465B68A8
:10045C00002BF9D111685018844217D02CD363604B
:10046C0054602846BDE8384000F032B81168501886
:10047C00A04214D020D8216860188342EFD11868AC
:10048C005B680844C4E900035460EAE723680B4442
:10049C001360E6E718685B6808442060CDE72068C5
:1004AC000144501883421160DBD1D3E900040144AC
:1004BC00C2E90014D5E770470C232B602846BDE831
:1004CC00384000F005B800BF54000020704700BF52
:1004DC00704700BF38B5074D0022044608462A6015
:1004EC0000F00AF8431C00D038BD2B68002BFBD061
:1004FC00236038BD58000020044A05491368002BBE
:10050C0008BF0B4618441060184670475C0000206A
:10051C0068000020407A704738B50446406803688C
:10052C009B680D4698470123C4E90205237438BD26
:10053C00002303747047007C7047037C10B504469D
:10054C000BB9002010BD406803689B689847D4E93C
:10055C000232C11A8A42F4D91344181AF2E77047CE
:10056C0070477047D0F88C20D0F890309A4211D058
:10057C00D0F89030034481221B7A0B70D0F8903065
:10058C000133B3FBF2F202EBC2129B1AC0F89030AB
:10059C00012070470020704730B587B004460D46E7
:1005AC001022002102A8FFF793FD012301AA29467E
:1005BC002046019300F040FC07B030BD10B50C2173
:1005CC00044600F05DFD204610BD10B59421044694
:1005DC0000F056FD204610BD10B51421044600F065
:1005EC004FFD204610BD10B50446017A043000F0D2
:1005FC005DFC0023637210BD10B50446017A043013
:10060C0000F04DFC0123637210BD08B511B1FFF76A
:10061C00F3FF08BDFFF7E7FFFBE7043000F086BCF3
:10062C00043000F089BC10B50446007C50B1606801
:10063C0003689B689847A368C31AE068834234BF79
:10064C000020012010BD0000704B1A6B42F0080214
:10065C002DE9F0411A631A6B6D4E42F001021A63D8
:10066C001A6CDAB042F400321A640E21A3F530533E
:10067C0003A80393FFF790FF0D2103A8FFF78CFF4E
:10068C000C210DEB0100FFF787FF0F2103A8FFF7EB
:10069C0083FF039B5F4A0A930E21CDE90C23CDE91E
:1006AC000F23CDE91223ADF82C100F230D21ADF83B
:1006BC003810ADF850300C21574B0992002403250B
:1006CC00ADF844100493022107234FF0010815AA3A
:1006DC0004A8CDE915141993CDE9175800F0ACFB1B
:1006EC00294615AA04A800F0A7FB4C4B05930FCE86
:1006FC001AAD0FC533682B601AA905A800F0E6FBEC
:10070C00474B35938122059B3693214637A8FFF73B
:10071C00DFFC35AE414605A8589406AD599400F05F
:10072C00FBFB304600F048FC3E4B3F490693284605
:10073C0000F028FC3D4B8DF88C40CDE91F3512AFF5
:10074C002CAD1FABCDE900730CAA0FAB09A9284641
:10075C00CDE9214400F0EEFA2146112224A8CDE97E
:10076C000756FFF7B5FC07A8CDE929448DF8AC4036
:10077C0000F088FA07A800F08FF92D4E8124589AC2
:10078C00599B9A423DD0599B03F5B4736B4413F8B3
:10079C008C1C599B0133B3FBF4F202EBC2129B1A73
:1007AC000D2959939DF8AC3001D00A2918D143B1C9
:1007BC000023314636A829938DF8AC3000F0BCFBF1
:1007CC00DDE7299A002ADAD002F5B471694407A84A
:1007DC0001F8D83C24A9CDE9293200F025FACEE75E
:1007EC00002BCCD1299B0F2B9DBF5A1C03F5B47346
:1007FC006B4401238EBF8DF8AC30299203F8D81CC2
:10080C00BDE7284600F0B8FAB9E700BF003802404F
:10081C0094100008641200080000024000440040DC
:10082C0084120008D01200080024F400A012000862
:10083C00B4100008202805D0093804288CBF0020EB
:10084C00012070470120704730B5013A814212F8FF
:10085C00013F03D8B3FA83F0400930BD83B110F8DF
:10086C00014BA4F16105192D98BF203CA3F1610542
:10087C0098BFE4B2192D9CBF203BDBB2A342E5D05C
:10088C000020EAE703468B4270B54FF0000005D21A
:10089C000A258B4203D108B11060012070BD13F8FA
:1008AC00014B303CE6B2092E07D8B0F5B47F04D822
:1008BC0005FB0040B0F5616FEBD90020EEE70000BE
:1008CC000723F7B50370002304464360A9B10A441B
:1008DC0091420D4605D228780131FFF7ABFF002875
:1008EC00F6D1954217460BD307D0234A39462846F2
:1008FC00FFF7AAFF58B103232370204603B0F0BDC5
:10090C0012F8010DFFF796FF0028EAD1EDE71B4A1C
:10091C002846FFF799FF08B10423EDE7184A28464B
:10092C00FFF792FF08B10523E6E7164A2846FFF7C2
:10093C008BFF08B10623DFE72B78A3F16102192A9C
:10094C009CBF203BDBB2522B11D0592B11D0472B23
:10095C00D3D10126002301AA3946681C0193FFF765
:10096C0091FF0028C9D0019B26706360C5E7002663
:10097C00F0E70226EEE700BFBB100008C11000082C
:10098C00C6100008CD10000830B5013B104413F818
:10099C00015F15B1541C8C4203D300230370104625
:1009AC0030BD00F8015B2246F1E7F0B585B0E1B14E
:1009BC00DAB101AE002335464FF00A0CB0FBFCFE59
:1009CC000CFB1E07303706F8017B0746092F1C4627
:1009DC00704603F101030AD90A2BEFD10920044612
:1009EC000234A24205D200230B7005B0F0BD2046A4
:1009FC00F6E72A185C18084612F8015900F8015B52
:100A0C00A042F9D10022CA54EFE700000138C0B26D
:100A1C0002289ABF024B53F820000248704700BFCF
:100A2C00BC120008D2100008406802490368DB6859
:100A3C00184700BFB5100008406802490368DB681E
:100A4C00184700BFB4100008012313700B7810B5C1
:100A5C00062B1DD8DFE803F0040A0F14181E1E0025
:100A6C004968006800F0BCF9012010BD49680068B5
:100A7C0000F0BAF9F8E74968006800F0B9F9F3E753
:100A8C00006800F06FF9EFE7006800F070F9EBE731
:100A9C00002313700020E8E770B59CB006683B4B50
:100AAC0004460022602104A8FFF76EFF236802466B
:100ABC0093F82000FFF7AAFF034618B104A8FFF72C
:100ACC0063FF02466021324B04A8FFF75DFF2368E9
:100ADC00024693F821502F482F4B002D18BF034688
:100AEC0004A8FFF751FF01A905460C227069FFF716
:100AFC005CFF2A466021294B04A8FFF745FF01AB98
:100B0C00024604A8FFF740FF01A905460C22B06974
:100B1C00FFF74BFF2A466021214B04A8FFF734FF57
:100B2C0001AB024604A8FFF72FFF01A905460C22D2
:100B3C00F069FFF73AFF60212A461A4B04A8FFF729
:100B4C0023FF01AB024604A8FFF71EFF05462068F1
:100B5C0000F052F901A90C22FFF727FF60212A4669
:100B6C00114B04A8FFF710FF01AB024604A8FFF7D6
:100B7C000BFF0E4B024604A8FFF706FF60680368E4
:100B8C0004A9DB6898471CB070BD00BFDB100008DF
:100B9C00E9100008D9100008D7100008EF10000861
:100BAC00F3100008F7100008FB1000085F11000894
:100BBC0010B50446406814490368DB6898476068C0
:100BCC0012490368DB689847606811490368DB6861
:100BDC00984760680F490368DB68984760680E495E
:100BEC000368DB68984760680C490368DB689847C2
:100BFC0060680B490368DB689847606809490368BB
:100C0C00BDE81040DB6818470411000810110008FB
:100C1C0038110008621100088C110008A611000898
:100C2C00BE110008E311000830B585B0044602A8D7
:100C3C00FFF746FE0DF1070202A92046FFF704FF5D
:100C4C009DF807300546204623B905B0BDE8304075
:100C5C00FFF7F2BEFFF7E8FE9DF80830052B05D133
:100C6C00204605B0BDE83040FFF716BF062B05D176
:100C7C00204605B0BDE83040FFF79ABF002DEFD1FC
:100C8C0005B030BD10B50446406805490368DB6803
:100C9C009847606803490368BDE81040DB68184753
:100CAC00FC1100082F120008022905D0032905D0D9
:100CBC00012905D14069704780697047C069704748
:100CCC000020704770B5044680F8201000684A1E5A
:100CDC0003680D46514251411B6998476068EE1EEE
:100CEC00036871421B6971419847A068A5F1020C19
:100CFC000368DCF100011B6941EB0C019847E068CB
:100D0C0003683DB9DB68984720690368BDE870400B
:100D1C00DB6818479B689847236929462046FFF7EC
:100D2C00C3FF1A684FF47A714143BDE87040926872
:100D3C001846104710B5C0E900128360084A029BA0
:100D4C00C360039B0361044600F1140307CA83E8E4
:100D5C000700002120462184FFF7B4FF204610BD78
:100D6C00A8100008012180F82110FFF7ABBF00216B
:100D7C0080F82110FFF7A6BF38B590F82130044653
:100D8C006BB1006903681B699847054638B194F844
:100D9C002030022B0BD0032B0BD0012B02D00025C3
:100DAC00284638BD02212046FFF78CFFF8E70321C7
:100DBC00F9E70121F7E710B590F821407CB190F8E4
:100DCC0020408C420BD10369FFF76EFF1A684FF479
:100DDC007A714143BDE8104092681846104710BD27
:100DEC0041610121FFF7E7BF81610221FFF7E3BFFA
:100DFC00C1610321FFF7DFBF08B5034690F821005E
:100E0C0060B193F8200048B1186903689B69984752
:100E1C004FF47A7300F2E730B0FBF3F008BD10B575
:100E2C000368490003248C4002F0030223EA040304
:100E3C008A401A43026010BD0F2970B50D46164644
:100E4C002CD8046812682046FFF7E9FF294604F104
:100E5C000800B268FFF7E3FF2946F26804F10C00C2
:100E6C00FFF7DDFF72680123012A626803FA05F3BC
:100E7C000CBF134322EA030305F00702ED0863607D
:100E8C0004EB85049200216A0F23934021EA0301AD
:100E9C00336903F00F0393400B43236270BD0F299A
:100EAC009FBF012302688B40936170470F2904D8C0
:100EBC000268103101238B4093617047034608464A
:100ECC0019B103EB5103B3FBF1F0704710B5046893
:100EDC0000230A46E360D1E90010FFF7EFFFA060A2
:100EEC001169236961F30D3323619368D268591E2C
:100EFC004B424B41012A4FEA033307D0022A08D058
:100F0C0043F4005343F00C03E36010BD43F48063DF
:100F1C00F6E743F4C063F3E70368DA6819B142F00B
:100F2C002002DA60704722F02002FAE703681A68A0
:100F3C001206FCD55960704710B539B14C1E14F827
:100F4C00011F21B9026813685B06FCD510BDFFF7C1
:100F5C00EDFFF4E703681868C0F3401070470368AE
:100F6C005868C0B270470000014B1868704700BF4A
:100F7C0060000020704710B50421044600F080F892
:100F8C00204610BD4FF47A73B1FBF3F10139B1F186
:100F9C00807F4FF0000006D24FF0E023072259610A
:100FAC0098611A6101207047024A1368013313607B
:100FBC00704700BF60000020034B186010B1034B5A
:100FCC0040225A60704700BF6400002000E100E03E
:100FDC0038B50F4B1C68D4B1251D2846FFF7BAFF56
:100FEC00A8B12846FFF7BBFFD4F88C30812201331F
:100FFC00B3FBF2F202EBC2129B1AD4F8902093428C
:10100C001FBFD4F88C2012191072C4F88C3038BD64
:10101C0064000020FEE7000038B5124B1248134C58
:10102C00134DDA1C121AC11E22F00302994288BF1A
:10103C0000221049FFF79EF80F4B1048DA1C121AC9
:10104C00C11E22F00302994288BF00220021FFF743
:10105C003FF8AC4202D1FFF7F7FAFEE754F8043B35
:10106C009847F6E75000002000000020E41200082A
:10107C00E4120008E4120008680000205000002070
:10108C0000F000B8FFF718B900C201000024F4000A
:10109C000000000000000000000000001E00000026
:1010AC0014000000050000004E41434B0D0A005394
:1010BC00544152540053544F5000535441545553BF
:1010CC000048454C500049444C4500300031005319
:1010DC0054415455532053544154453D00205255CE
:1010EC004E3D0020523D0020473D0020593D002040
:1010FC0052454D41494E3D00436F6D6D616E6473B9
:10110C003A0D0A002020523C7365633E2020736523
:10111C007420524544206475726174696F6E202886
:10112C00652E672E20523330290D0A002020473CB3
:10113C007365633E202073657420475245454E20ED
:10114C006475726174696F6E2028652E672E204756
:10115C003230290D0A002020593C7365633E202053
:10116C007365742059454C4C4F57206475726174EB
:10117C00696F6E2028652E672E205935290D0A00BF
:10118C0020205354415254202020626567696E2000
:10119C006379636C696E670D0A00202053544F50BD
:1011AC002020202068616C74202849444C45290D6E
:1011BC000A00202053544154555320207265706FFF
:1011CC0072742074696D696E677320616E6420732C
:1011DC00746174650D0A00202048454C5020202075
:1011EC002074686973206D6573736167650D0A00FF
:1011FC0053544D33324634303720536D6172742062
:10120C0054726166666963204C6967687420436F29
:10121C006E74726F6C6C65722028432B2B313729DE
:10122C000D0A00547970652048454C5020666F7249
:10123C0020636F6D6D616E64732E0D0A0052454410
:10124C0000475245454E0059454C4C4F5700000045
:10125C0000000000000000006B050008C905000834
:10126C0005060008F305000817060008210500080C
:10127C0000000000000000006D050008D705000804
:10128C00270600082D060008710500080000000064
:10129C00000000006F050008E505000825050008A2
:1012AC003D05000833060008430500084705000803
:1012BC00491200084D1200085312000800000000EB
:1012CC0000000000810F0008830F0008750F000854
:0812DC00A4EEFF7F01000000F9
:1012E400040000200000000000000000680000006E
:1012F400D00000000000000000000000000000001A
:1013040000000000000000000000000000000000D9
:1013140000000000000000000000000000000000C9
:1013240000000000000000000000000000000000B9
:0400000508001025BA
:00000001FF
